:100000000C9434000C9446000C9446000C94770039
:100010000C9446000C9446000C9446000C94460048
:100020000C9446000C9446000C9446000C94460038
:100030000C9446000C9446000C9446000C94460028
:100040000C9448000C9446000C9446000C94460016
:100050000C9446000C9446000C9446000C94460008
:100060000C9446000C94460011241FBECFEFD8E03C
:10007000DEBFCDBF21E0A0E0B1E001C01D92AB31F9
:10008000B207E1F70E9431010C9494010C94000036
:100090001F920F920FB60F9211242F933F934F93FD
:1000A0005F936F937F938F939F93AF93BF93EF93E0
:1000B000FF9385E086BD0E94C900FF91EF91BF913B
:1000C000AF919F918F917F916F915F914F913F91F0
:1000D0002F910F900FBE0F901F90189580E40E94F3
:1000E0002A016AE070E08EE690E00C94FB001F921B
:1000F0000F920FB60F9211242F933F934F935F935C
:100100006F937F938F939F93AF93BF93EF93FF93DF
:1001100080910001882329F00E946E001092000156
:100120001EC02FB7F894E1E0F1E080E090E040815C
:1001300051814E56504051F4880F991F880F991FD6
:10014000FC01EF5FFE4F1182108205C001963496CC
:100150008430910561F72FBF81E080930001FF910A
:10016000EF91BF91AF919F918F917F916F915F912F
:100170004F913F912F910F900FBE0F901F901895A8
:1001800080E80E942A0168EE73E080EC90E00C9415
:10019000FB00A1E0B1E041E151E02D913C911197CC
:1001A0002115310519F112968D919C9113970197A4
:1001B00013969C938E931297892BC1F480911A0108
:1001C00090911901891B8C7F71F4E0911A0181E0F3
:1001D0008E0F80931A01E370F0E0EE0FFF1FEF5EC9
:1001E000FE4F3183208311961C921E9214964A175B
:1001F0005B0799F60895CF93DF93AC019FB7F8940E
:10020000A1E0B1E020E030E0E0E0CD91DC91119799
:10021000209709F4E22FC417D50741F4220F331FAA
:10022000220F331FF901EF5FFE4F0EC02F5F3F4FCC
:1002300014962430310549F784E0E89FF001112439
:10024000EF5FFE4F51834083738362839FBFDF91D3
:10025000CF9108952FB7F8949BB189278BB92FBF01
:1002600008951092190110921A0110920201109231
:1002700001011092040110920301109206011092E4
:100280000501109208011092070110920A011092C4
:10029000090110920C0110920B0110920E011092A4
:1002A0000D011092100110920F0185B5887F8360B7
:1002B00085BD80916E00816080936E00569A579A3A
:1002C0002498259880917C008073806480937C00C2
:1002D00080917A008770856880937A0080916800A9
:1002E00081608093680080916B00806380936B00D5
:1002F00078940E946E000E94C00090911A01809133
:1003000019019817D1F3E091190181E08E0F8093C4
:100310001901E370F0E0EE0FFF1FEF5EFE4F01905A
:0C032000F081E02D0995E9CFF894FFCFA3
:00000001FF
